{
  "contractName": "Escrow",
  "abi": [
    {
      "inputs": [
        {
          "internalType": "address",
          "name": "_fromAddr",
          "type": "address"
        },
        {
          "internalType": "address",
          "name": "_toAddr",
          "type": "address"
        },
        {
          "internalType": "uint256",
          "name": "_withdrawalDuration",
          "type": "uint256"
        },
        {
          "internalType": "bool",
          "name": "_withdrawn",
          "type": "bool"
        }
      ],
      "stateMutability": "nonpayable",
      "type": "constructor"
    },
    {
      "anonymous": false,
      "inputs": [
        {
          "indexed": false,
          "internalType": "address",
          "name": "sender",
          "type": "address"
        },
        {
          "indexed": false,
          "internalType": "uint256",
          "name": "amount",
          "type": "uint256"
        }
      ],
      "name": "Deposit",
      "type": "event"
    },
    {
      "anonymous": false,
      "inputs": [
        {
          "indexed": false,
          "internalType": "address",
          "name": "amt",
          "type": "address"
        }
      ],
      "name": "checkaddr",
      "type": "event"
    },
    {
      "anonymous": false,
      "inputs": [
        {
          "indexed": false,
          "internalType": "uint256",
          "name": "amt",
          "type": "uint256"
        }
      ],
      "name": "checkint",
      "type": "event"
    },
    {
      "inputs": [],
      "name": "deposit",
      "outputs": [],
      "stateMutability": "payable",
      "type": "function"
    },
    {
      "inputs": [],
      "name": "withdraw",
      "outputs": [],
      "stateMutability": "nonpayable",
      "type": "function"
    },
    {
      "inputs": [],
      "name": "getBalance",
      "outputs": [
        {
          "internalType": "uint256",
          "name": "balance",
          "type": "uint256"
        }
      ],
      "stateMutability": "view",
      "type": "function"
    },
    {
      "inputs": [],
      "name": "getWithdrawalPermission",
      "outputs": [
        {
          "internalType": "bool",
          "name": "withdrawalPermission",
          "type": "bool"
        }
      ],
      "stateMutability": "view",
      "type": "function"
    },
    {
      "inputs": [],
      "name": "getRevertTimestamp",
      "outputs": [
        {
          "internalType": "uint256",
          "name": "_revertTimestamp",
          "type": "uint256"
        }
      ],
      "stateMutability": "view",
      "type": "function"
    }
  ],
  "bytecode": "0x60806040523480156200001157600080fd5b5060405162000dab38038062000dab83398181016040528101906200003791906200025d565b836000806101000a81548173ffffffffffffffffffffffffffffffffffffffff021916908373ffffffffffffffffffffffffffffffffffffffff16021790555082600160006101000a81548173ffffffffffffffffffffffffffffffffffffffff021916908373ffffffffffffffffffffffffffffffffffffffff16021790555082600260006101000a81548173ffffffffffffffffffffffffffffffffffffffff021916908373ffffffffffffffffffffffffffffffffffffffff1602179055508160038190555080600460006101000a81548160ff02191690831515021790555083600460016101000a81548173ffffffffffffffffffffffffffffffffffffffff021916908373ffffffffffffffffffffffffffffffffffffffff160217905550600354426200016b9190620002fe565b600581905550505050506200035b565b600080fd5b600073ffffffffffffffffffffffffffffffffffffffff82169050919050565b6000620001ad8262000180565b9050919050565b620001bf81620001a0565b8114620001cb57600080fd5b50565b600081519050620001df81620001b4565b92915050565b6000819050919050565b620001fa81620001e5565b81146200020657600080fd5b50565b6000815190506200021a81620001ef565b92915050565b60008115159050919050565b620002378162000220565b81146200024357600080fd5b50565b60008151905062000257816200022c565b92915050565b600080600080608085870312156200027a57620002796200017b565b5b60006200028a87828801620001ce565b94505060206200029d87828801620001ce565b9350506040620002b08782880162000209565b9250506060620002c38782880162000246565b91505092959194509250565b7f4e487b7100000000000000000000000000000000000000000000000000000000600052601160045260246000fd5b60006200030b82620001e5565b91506200031883620001e5565b9250827fffffffffffffffffffffffffffffffffffffffffffffffffffffffffffffffff0382111562000350576200034f620002cf565b5b828201905092915050565b610a40806200036b6000396000f3fe60806040526004361061004a5760003560e01c80630cc2bb6d1461004f57806312065fe01461007a5780633ccfd60b146100a557806362b500fe146100bc578063d0e30db0146100e7575b600080fd5b34801561005b57600080fd5b506100646100f1565b604051610071919061066a565b60405180910390f35b34801561008657600080fd5b5061008f6100fb565b60405161009c919061066a565b60405180910390f35b3480156100b157600080fd5b506100ba610103565b005b3480156100c857600080fd5b506100d1610317565b6040516100de91906106a0565b60405180910390f35b6100ef6103cf565b005b6000600554905090565b600047905090565b600554421061016e5760008054906101000a900473ffffffffffffffffffffffffffffffffffffffff16600260006101000a81548173ffffffffffffffffffffffffffffffffffffffff021916908373ffffffffffffffffffffffffffffffffffffffff1602179055505b600260009054906101000a900473ffffffffffffffffffffffffffffffffffffffff1673ffffffffffffffffffffffffffffffffffffffff163373ffffffffffffffffffffffffffffffffffffffff16146101fe576040517f08c379a00000000000000000000000000000000000000000000000000000000081526004016101f59061073e565b60405180910390fd5b600460009054906101000a900460ff161561024e576040517f08c379a0000000000000000000000000000000000000000000000000000000008152600401610245906107d0565b60405180910390fd5b60004711610291576040517f08c379a00000000000000000000000000000000000000000000000000000000081526004016102889061083c565b60405180910390fd5b600260009054906101000a900473ffffffffffffffffffffffffffffffffffffffff1673ffffffffffffffffffffffffffffffffffffffff166108fc479081150290604051600060405180830381858888f193505050501580156102f9573d6000803e3d6000fd5b506001600460006101000a81548160ff021916908315150217905550565b600060055442106103785760008054906101000a900473ffffffffffffffffffffffffffffffffffffffff1673ffffffffffffffffffffffffffffffffffffffff163373ffffffffffffffffffffffffffffffffffffffff161490506103cc565b600160009054906101000a900473ffffffffffffffffffffffffffffffffffffffff1673ffffffffffffffffffffffffffffffffffffffff163373ffffffffffffffffffffffffffffffffffffffff161490505b90565b3373ffffffffffffffffffffffffffffffffffffffff16600460019054906101000a900473ffffffffffffffffffffffffffffffffffffffff1673ffffffffffffffffffffffffffffffffffffffff16148015610499575060008054906101000a900473ffffffffffffffffffffffffffffffffffffffff1673ffffffffffffffffffffffffffffffffffffffff16600460019054906101000a900473ffffffffffffffffffffffffffffffffffffffff1673ffffffffffffffffffffffffffffffffffffffff16145b6104d8576040517f08c379a00000000000000000000000000000000000000000000000000000000081526004016104cf906108a8565b60405180910390fd5b6000341161051b576040517f08c379a000000000000000000000000000000000000000000000000000000000815260040161051290610914565b60405180910390fd5b7fe1fffcc4923d04b559f4d29a8bfc6cda04eb5b0d3c460751c2402c5c5cc9109c333460405161054c929190610975565b60405180910390a161055c61055e565b565b60008054906101000a900473ffffffffffffffffffffffffffffffffffffffff1673ffffffffffffffffffffffffffffffffffffffff16600460019054906101000a900473ffffffffffffffffffffffffffffffffffffffff1673ffffffffffffffffffffffffffffffffffffffff161461060e576040517f08c379a0000000000000000000000000000000000000000000000000000000008152600401610605906109ea565b60405180910390fd5b30600460016101000a81548173ffffffffffffffffffffffffffffffffffffffff021916908373ffffffffffffffffffffffffffffffffffffffff160217905550565b6000819050919050565b61066481610651565b82525050565b600060208201905061067f600083018461065b565b92915050565b60008115159050919050565b61069a81610685565b82525050565b60006020820190506106b56000830184610691565b92915050565b600082825260208201905092915050565b7f546869732061646472657373206973206e6f74207065726d697474656420746f60008201527f2077697468647261772e00000000000000000000000000000000000000000000602082015250565b6000610728602a836106bb565b9150610733826106cc565b604082019050919050565b600060208201905081810360008301526107578161071b565b9050919050565b7f42616c616e63652068617320616c7265616479206265656e207769746864726160008201527f776e000000000000000000000000000000000000000000000000000000000000602082015250565b60006107ba6022836106bb565b91506107c58261075e565b604082019050919050565b600060208201905081810360008301526107e9816107ad565b9050919050565b7f4e6f2062616c616e636520696e207468697320636f6e74726163742e00000000600082015250565b6000610826601c836106bb565b9150610831826107f0565b602082019050919050565b6000602082019050818103600083015261085581610819565b9050919050565b7f4e6f74206f776e65722e00000000000000000000000000000000000000000000600082015250565b6000610892600a836106bb565b915061089d8261085c565b602082019050919050565b600060208201905081810360008301526108c181610885565b9050919050565b7f4465706f736974206d757374206265206d6f7265207468616e20302e00000000600082015250565b60006108fe601c836106bb565b9150610909826108c8565b602082019050919050565b6000602082019050818103600083015261092d816108f1565b9050919050565b600073ffffffffffffffffffffffffffffffffffffffff82169050919050565b600061095f82610934565b9050919050565b61096f81610954565b82525050565b600060408201905061098a6000830185610966565b610997602083018461065b565b9392505050565b7f4f776e657220616c7265616479206368616e6765642e00000000000000000000600082015250565b60006109d46016836106bb565b91506109df8261099e565b602082019050919050565b60006020820190508181036000830152610a03816109c7565b905091905056fea2646970667358221220063cab6242646a9041acd2beda3b21645f1ac02e2f814777e8d85d1170c7195464736f6c634300080d0033",
  "immutableReferences": {},
  "source": "//SPDX-License-Identifier: MIT\r\npragma solidity ^0.8.10;\r\n\r\ncontract EscrowFactory {\r\n    mapping(address => address[]) public userToEscrow;\r\n    event CreateLog(address addr, uint256 timestamp);\r\n    event AddLog(address childAddr);\r\n\r\n    function createEscrow(\r\n        address toAddr,\r\n        uint256 withdrawalDuration\r\n    ) public payable\r\n    {\r\n        Escrow escrow = new Escrow(\r\n            msg.sender,\r\n            toAddr,\r\n            withdrawalDuration,\r\n            false\r\n        );\r\n        userToEscrow[msg.sender].push(address(escrow));\r\n        userToEscrow[toAddr].push(address(escrow));\r\n        emit CreateLog(address(escrow), block.timestamp);\r\n    }\r\n\r\n    function getUserToEscrow() public view returns (address[] memory) {\r\n        return userToEscrow[msg.sender];\r\n    }\r\n}\r\n\r\ncontract Escrow {\r\n    address private fromAddr;\r\n    address private toAddr;\r\n    address private withdrawalAddr;\r\n    uint256 private withdrawalDuration;\r\n    bool private withdrawn;\r\n    address private owner;\r\n    uint256 private revertTimestamp;\r\n    bool private reverted;\r\n\r\n    event checkint(uint256 amt);\r\n    event checkaddr(address amt);\r\n    event Deposit(address sender, uint256 amount);\r\n\r\n    constructor(\r\n        address _fromAddr,\r\n        address _toAddr,\r\n        uint256 _withdrawalDuration,\r\n        bool _withdrawn\r\n    ) {\r\n        fromAddr = _fromAddr;\r\n        toAddr = _toAddr;\r\n        withdrawalAddr = _toAddr;\r\n        withdrawalDuration = _withdrawalDuration;\r\n        withdrawn = _withdrawn;\r\n        owner = _fromAddr;\r\n        revertTimestamp = block.timestamp + withdrawalDuration;\r\n    }\r\n\r\n    function deposit() public payable {\r\n        require(owner == msg.sender && owner == fromAddr, \"Not owner.\");\r\n        require(msg.value > 0, \"Deposit must be more than 0.\");\r\n        emit Deposit(msg.sender, msg.value);\r\n\r\n        transferOwner();\r\n    }\r\n\r\n    function withdraw() public {\r\n        if (block.timestamp >= revertTimestamp) {\r\n            withdrawalAddr = fromAddr;\r\n        }\r\n        require(\r\n            msg.sender == withdrawalAddr,\r\n            \"This address is not permitted to withdraw.\"\r\n        );\r\n        require(!withdrawn, \"Balance has already been withdrawn\");\r\n        require(address(this).balance > 0, \"No balance in this contract.\");\r\n\r\n        payable(withdrawalAddr).transfer(address(this).balance);\r\n        withdrawn = true;\r\n    }\r\n\r\n    function transferOwner() private {\r\n        require(owner == fromAddr, \"Owner already changed.\");\r\n        owner = address(this);\r\n    }\r\n\r\n    function getBalance() public view returns (uint256 balance) {\r\n        return address(this).balance;\r\n    }\r\n\r\n    function getWithdrawalPermission()\r\n        public\r\n        view\r\n        returns (bool withdrawalPermission)\r\n    {\r\n        if (block.timestamp >= revertTimestamp) {\r\n            return (msg.sender == fromAddr);\r\n        } else {\r\n            return (msg.sender == toAddr);\r\n        }\r\n    }\r\n\r\n    function getRevertTimestamp() public view returns(uint256 _revertTimestamp) {\r\n        return revertTimestamp;\r\n    }\r\n}\r\n",
  "sourcePath": "C:\\Users\\Zyle\\Desktop\\escrow-service\\truffle\\contracts\\EscrowService.sol",
  "compiler": {
    "name": "solc",
    "version": "0.8.13+commit.abaa5c0e.Emscripten.clang"
  },
  "schemaVersion": "3.4.16",
  "updatedAt": "2023-11-03T16:36:06.409Z",
  "devdoc": {
    "kind": "dev",
    "methods": {},
    "version": 1
  },
  "userdoc": {
    "kind": "user",
    "methods": {},
    "version": 1
  }
}